{
  "contractName": "RealEstate",
  "abi": [
    {
      "constant": true,
      "inputs": [],
      "name": "owner",
      "outputs": [
        {
          "name": "",
          "type": "address"
        }
      ],
      "payable": false,
      "stateMutability": "view",
      "type": "function"
    },
    {
      "constant": true,
      "inputs": [
        {
          "name": "",
          "type": "uint256"
        }
      ],
      "name": "buyerInfo",
      "outputs": [
        {
          "name": "buyerAddress",
          "type": "address"
        },
        {
          "name": "email",
          "type": "bytes32"
        },
        {
          "name": "passwd",
          "type": "bytes32"
        }
      ],
      "payable": false,
      "stateMutability": "view",
      "type": "function"
    },
    {
      "constant": true,
      "inputs": [
        {
          "name": "",
          "type": "uint256"
        }
      ],
      "name": "buyers",
      "outputs": [
        {
          "name": "",
          "type": "address"
        }
      ],
      "payable": false,
      "stateMutability": "view",
      "type": "function"
    },
    {
      "inputs": [],
      "payable": false,
      "stateMutability": "nonpayable",
      "type": "constructor"
    },
    {
      "anonymous": false,
      "inputs": [
        {
          "indexed": false,
          "name": "_buyer",
          "type": "address"
        },
        {
          "indexed": false,
          "name": "_id",
          "type": "uint256"
        }
      ],
      "name": "LogBuyRealEstate",
      "type": "event"
    },
    {
      "constant": false,
      "inputs": [
        {
          "name": "_id",
          "type": "uint256"
        },
        {
          "name": "_email",
          "type": "bytes32"
        },
        {
          "name": "_passwd",
          "type": "bytes32"
        }
      ],
      "name": "buyRealEstate",
      "outputs": [],
      "payable": true,
      "stateMutability": "payable",
      "type": "function"
    },
    {
      "constant": true,
      "inputs": [
        {
          "name": "_id",
          "type": "uint256"
        }
      ],
      "name": "getBuyerInfo",
      "outputs": [
        {
          "name": "",
          "type": "address"
        },
        {
          "name": "",
          "type": "bytes32"
        },
        {
          "name": "",
          "type": "bytes32"
        }
      ],
      "payable": false,
      "stateMutability": "view",
      "type": "function"
    },
    {
      "constant": true,
      "inputs": [],
      "name": "getAllBuyers",
      "outputs": [
        {
          "name": "",
          "type": "address[10]"
        }
      ],
      "payable": false,
      "stateMutability": "view",
      "type": "function"
    }
  ],
  "bytecode": "0x608060405234801561001057600080fd5b5033600160006101000a81548173ffffffffffffffffffffffffffffffffffffffff021916908373ffffffffffffffffffffffffffffffffffffffff160217905550610759806100616000396000f300608060405260043610610078576000357c0100000000000000000000000000000000000000000000000000000000900463ffffffff1680635aee87031461007d57806373e048b71461010857806386cba22b146101445780638da5cb5b14610197578063e377e966146101ee578063f2aa821814610279575b600080fd5b34801561008957600080fd5b506100a8600480360381019080803590602001909291905050506102e6565b604051808473ffffffffffffffffffffffffffffffffffffffff1673ffffffffffffffffffffffffffffffffffffffff16815260200183600019166000191681526020018260001916600019168152602001935050505060405180910390f35b61014260048036038101908080359060200190929190803560001916906020019092919080356000191690602001909291905050506103aa565b005b34801561015057600080fd5b506101596105a5565b6040518082600a60200280838360005b83811015610184578082015181840152602081019050610169565b5050505090500191505060405180910390f35b3480156101a357600080fd5b506101ac610626565b604051808273ffffffffffffffffffffffffffffffffffffffff1673ffffffffffffffffffffffffffffffffffffffff16815260200191505060405180910390f35b3480156101fa57600080fd5b506102196004803603810190808035906020019092919050505061064c565b604051808473ffffffffffffffffffffffffffffffffffffffff1673ffffffffffffffffffffffffffffffffffffffff16815260200183600019166000191681526020018260001916600019168152602001935050505060405180910390f35b34801561028557600080fd5b506102a460048036038101908080359060200190929190505050610696565b604051808273ffffffffffffffffffffffffffffffffffffffff1673ffffffffffffffffffffffffffffffffffffffff16815260200191505060405180910390f35b60008060006102f36106cb565b600080868152602001908152602001600020606060405190810160405290816000820160009054906101000a900473ffffffffffffffffffffffffffffffffffffffff1673ffffffffffffffffffffffffffffffffffffffff1673ffffffffffffffffffffffffffffffffffffffff16815260200160018201546000191660001916815260200160028201546000191660001916815250509050806000015181602001518260400151935093509350509193909250565b600083101580156103bc575060098311155b15156103c757600080fd5b33600284600a811015156103d757fe5b0160006101000a81548173ffffffffffffffffffffffffffffffffffffffff021916908373ffffffffffffffffffffffffffffffffffffffff1602179055506060604051908101604052803373ffffffffffffffffffffffffffffffffffffffff16815260200183600019168152602001826000191681525060008085815260200190815260200160002060008201518160000160006101000a81548173ffffffffffffffffffffffffffffffffffffffff021916908373ffffffffffffffffffffffffffffffffffffffff1602179055506020820151816001019060001916905560408201518160020190600019169055905050600160009054906101000a900473ffffffffffffffffffffffffffffffffffffffff1673ffffffffffffffffffffffffffffffffffffffff166108fc349081150290604051600060405180830381858888f19350505050158015610534573d6000803e3d6000fd5b507f0868a2b77ef5243ab424f87952a349bc823a92fd01d9b45d2fec78b8eafb586b3384604051808373ffffffffffffffffffffffffffffffffffffffff1673ffffffffffffffffffffffffffffffffffffffff1681526020018281526020019250505060405180910390a1505050565b6105ad610709565b6002600a806020026040519081016040528092919082600a801561061c576020028201915b8160009054906101000a900473ffffffffffffffffffffffffffffffffffffffff1673ffffffffffffffffffffffffffffffffffffffff16815260200190600101908083116105d2575b5050505050905090565b600160009054906101000a900473ffffffffffffffffffffffffffffffffffffffff1681565b60006020528060005260406000206000915090508060000160009054906101000a900473ffffffffffffffffffffffffffffffffffffffff16908060010154908060020154905083565b600281600a811015156106a557fe5b016000915054906101000a900473ffffffffffffffffffffffffffffffffffffffff1681565b606060405190810160405280600073ffffffffffffffffffffffffffffffffffffffff16815260200160008019168152602001600080191681525090565b61014060405190810160405280600a906020820280388339808201915050905050905600a165627a7a723058206f59dfc80ed9c61c875b97f05baab2207af3db86fdf891fc18e656af2c3620ec0029",
  "source": "pragma solidity ^0.4.23;\n\ncontract RealEstate {\n struct Buyer {\n     address buyerAddress;\n     bytes32 email;\n     bytes32 passwd;\n }\n\n mapping (uint => Buyer) public buyerInfo;\n address public owner;\n address[10] public buyers;\n\nevent LogBuyRealEstate(\n    address _buyer,\n    uint _id\n);\n\n constructor () public {\n     owner = msg.sender;\n }\n\n function buyRealEstate(uint _id, bytes32 _email, bytes32 _passwd) public payable {\n    require(_id >= 0 && _id <= 9);\n    buyers[_id] = msg.sender;\n    buyerInfo[_id] = Buyer(msg.sender, _email, _passwd);\n\n    owner.transfer(msg.value);\n    emit LogBuyRealEstate(msg.sender, _id);\n }\n    function getBuyerInfo(uint _id) public view returns (address, bytes32, bytes32){\n        Buyer memory buyer = buyerInfo[_id];\n        return (buyer.buyerAddress, buyer.email, buyer.passwd);\n    }\n    function getAllBuyers() public view returns (address[10]){\n        return buyers;\n    }\n}\n",
  "sourcePath": "C:\\SWUBookBook-master\\contracts\\RealEstate.sol",
  "compiler": {
    "name": "solc",
    "version": "0.4.25+commit.59dbf8f1.Emscripten.clang"
  },
  "schemaVersion": "2.0.2",
  "updatedAt": "2020-04-01T10:38:24.406Z"
}