{
  "contractName": "RealEstate",
  "abi": [
    {
      "constant": true,
      "inputs": [],
      "name": "owner",
      "outputs": [
        {
          "name": "",
          "type": "address"
        }
      ],
      "payable": false,
      "stateMutability": "view",
      "type": "function"
    },
    {
      "constant": true,
      "inputs": [
        {
          "name": "",
          "type": "uint256"
        }
      ],
      "name": "buyerInfo",
      "outputs": [
        {
          "name": "buyerAddress",
          "type": "address"
        },
        {
          "name": "email",
          "type": "bytes32"
        }
      ],
      "payable": false,
      "stateMutability": "view",
      "type": "function"
    },
    {
      "constant": true,
      "inputs": [
        {
          "name": "",
          "type": "uint256"
        }
      ],
      "name": "buyers",
      "outputs": [
        {
          "name": "",
          "type": "address"
        }
      ],
      "payable": false,
      "stateMutability": "view",
      "type": "function"
    },
    {
      "inputs": [],
      "payable": false,
      "stateMutability": "nonpayable",
      "type": "constructor"
    },
    {
      "anonymous": false,
      "inputs": [
        {
          "indexed": false,
          "name": "_buyer",
          "type": "address"
        },
        {
          "indexed": false,
          "name": "_id",
          "type": "uint256"
        }
      ],
      "name": "LogBuyRealEstate",
      "type": "event"
    },
    {
      "constant": false,
      "inputs": [
        {
          "name": "_id",
          "type": "uint256"
        },
        {
          "name": "_email",
          "type": "bytes32"
        },
        {
          "name": "_passwd",
          "type": "bytes32"
        }
      ],
      "name": "buyRealEstate",
      "outputs": [],
      "payable": true,
      "stateMutability": "payable",
      "type": "function"
    },
    {
      "constant": true,
      "inputs": [
        {
          "name": "_id",
          "type": "uint256"
        }
      ],
      "name": "getBuyerInfo",
      "outputs": [
        {
          "name": "",
          "type": "address"
        },
        {
          "name": "",
          "type": "bytes32"
        }
      ],
      "payable": false,
      "stateMutability": "view",
      "type": "function"
    },
    {
      "constant": true,
      "inputs": [],
      "name": "getAllBuyers",
      "outputs": [
        {
          "name": "",
          "type": "address[100]"
        }
      ],
      "payable": false,
      "stateMutability": "view",
      "type": "function"
    }
  ],
  "bytecode": "0x608060405234801561001057600080fd5b5033600160006101000a81548173ffffffffffffffffffffffffffffffffffffffff021916908373ffffffffffffffffffffffffffffffffffffffff1602179055506106d4806100616000396000f300608060405260043610610078576000357c0100000000000000000000000000000000000000000000000000000000900463ffffffff1680635aee87031461007d57806373e048b7146100f957806386cba22b146101355780638da5cb5b14610188578063e377e966146101df578063f2aa82181461025b575b600080fd5b34801561008957600080fd5b506100a8600480360381019080803590602001909291905050506102c8565b604051808373ffffffffffffffffffffffffffffffffffffffff1673ffffffffffffffffffffffffffffffffffffffff16815260200182600019166000191681526020019250505060405180910390f35b610133600480360381019080803590602001909291908035600019169060200190929190803560001916906020019092919050505061036e565b005b34801561014157600080fd5b5061014a610531565b6040518082606460200280838360005b8381101561017557808201518184015260208101905061015a565b5050505090500191505060405180910390f35b34801561019457600080fd5b5061019d6105b2565b604051808273ffffffffffffffffffffffffffffffffffffffff1673ffffffffffffffffffffffffffffffffffffffff16815260200191505060405180910390f35b3480156101eb57600080fd5b5061020a600480360381019080803590602001909291905050506105d8565b604051808373ffffffffffffffffffffffffffffffffffffffff1673ffffffffffffffffffffffffffffffffffffffff16815260200182600019166000191681526020019250505060405180910390f35b34801561026757600080fd5b506102866004803603810190808035906020019092919050505061061c565b604051808273ffffffffffffffffffffffffffffffffffffffff1673ffffffffffffffffffffffffffffffffffffffff16815260200191505060405180910390f35b6000806102d3610651565b6000808581526020019081526020016000206040805190810160405290816000820160009054906101000a900473ffffffffffffffffffffffffffffffffffffffff1673ffffffffffffffffffffffffffffffffffffffff1673ffffffffffffffffffffffffffffffffffffffff16815260200160018201546000191660001916815250509050806000015181602001519250925050915091565b3360028460648110151561037e57fe5b0160006101000a81548173ffffffffffffffffffffffffffffffffffffffff021916908373ffffffffffffffffffffffffffffffffffffffff16021790555060408051908101604052803373ffffffffffffffffffffffffffffffffffffffff168152602001836000191681525060008085815260200190815260200160002060008201518160000160006101000a81548173ffffffffffffffffffffffffffffffffffffffff021916908373ffffffffffffffffffffffffffffffffffffffff16021790555060208201518160010190600019169055905050600160009054906101000a900473ffffffffffffffffffffffffffffffffffffffff1673ffffffffffffffffffffffffffffffffffffffff166108fc349081150290604051600060405180830381858888f193505050501580156104c0573d6000803e3d6000fd5b507f0868a2b77ef5243ab424f87952a349bc823a92fd01d9b45d2fec78b8eafb586b3384604051808373ffffffffffffffffffffffffffffffffffffffff1673ffffffffffffffffffffffffffffffffffffffff1681526020018281526020019250505060405180910390a1505050565b610539610684565b60026064806020026040519081016040528092919082606480156105a8576020028201915b8160009054906101000a900473ffffffffffffffffffffffffffffffffffffffff1673ffffffffffffffffffffffffffffffffffffffff168152602001906001019080831161055e575b5050505050905090565b600160009054906101000a900473ffffffffffffffffffffffffffffffffffffffff1681565b60006020528060005260406000206000915090508060000160009054906101000a900473ffffffffffffffffffffffffffffffffffffffff16908060010154905082565b60028160648110151561062b57fe5b016000915054906101000a900473ffffffffffffffffffffffffffffffffffffffff1681565b6040805190810160405280600073ffffffffffffffffffffffffffffffffffffffff168152602001600080191681525090565b610c80604051908101604052806064906020820280388339808201915050905050905600a165627a7a72305820a9f027ab2408a0f3889cf58bf41326106c8339129d3278bdd6dae7c070e6fa330029",
  "source": "pragma solidity ^0.4.23;\n\ncontract RealEstate {\n struct Buyer {\n     address buyerAddress;\n     bytes32 email;\n }\n\n mapping (uint => Buyer) public buyerInfo;\n address public owner;\n address[100] public buyers;\n\nevent LogBuyRealEstate(\n    address _buyer,\n    uint _id\n);\n\n constructor () public { owner = msg.sender; }\n\n function buyRealEstate(uint _id, bytes32 _email, bytes32 _passwd) public payable {\n    //require(_id >= 0 && _id <= 9999);\n    buyers[_id] = msg.sender;\n    buyerInfo[_id] = Buyer(msg.sender, _email);\n\n    owner.transfer(msg.value);\n    emit LogBuyRealEstate(msg.sender, _id);\n }\n    function getBuyerInfo(uint _id) public view returns (address, bytes32){\n        Buyer memory buyer = buyerInfo[_id];\n        return (buyer.buyerAddress, buyer.email);\n    }\n    function getAllBuyers() public view returns (address[100]){\n        return buyers;\n    }\n}\n",
  "sourcePath": "C:\\SWUBookBook-master\\contracts\\RealEstate.sol",
  "compiler": {
    "name": "solc",
    "version": "0.4.25+commit.59dbf8f1.Emscripten.clang"
  },
  "schemaVersion": "2.0.2",
  "updatedAt": "2020-05-21T07:49:37.241Z"
}